{
  "_format": "hh-sol-artifact-1",
  "contractName": "WavePortal",
  "sourceName": "contracts/WavePortal.sol",
  "abi": [
    {
      "inputs": [],
      "stateMutability": "payable",
      "type": "constructor"
    },
    {
      "anonymous": false,
      "inputs": [
        {
          "indexed": true,
          "internalType": "address",
          "name": "from",
          "type": "address"
        },
        {
          "indexed": false,
          "internalType": "uint256",
          "name": "timestamp",
          "type": "uint256"
        },
        {
          "indexed": false,
          "internalType": "string",
          "name": "message",
          "type": "string"
        }
      ],
      "name": "NewWave",
      "type": "event"
    },
    {
      "anonymous": false,
      "inputs": [
        {
          "indexed": true,
          "internalType": "address",
          "name": "previousOwner",
          "type": "address"
        },
        {
          "indexed": true,
          "internalType": "address",
          "name": "newOwner",
          "type": "address"
        }
      ],
      "name": "OwnershipTransferred",
      "type": "event"
    },
    {
      "inputs": [],
      "name": "getAllWaves",
      "outputs": [
        {
          "components": [
            {
              "internalType": "address",
              "name": "waver",
              "type": "address"
            },
            {
              "internalType": "string",
              "name": "message",
              "type": "string"
            },
            {
              "internalType": "uint256",
              "name": "timestamp",
              "type": "uint256"
            }
          ],
          "internalType": "struct WavePortal.Wave[]",
          "name": "",
          "type": "tuple[]"
        }
      ],
      "stateMutability": "view",
      "type": "function"
    },
    {
      "inputs": [],
      "name": "getNumberOfWinners",
      "outputs": [
        {
          "internalType": "uint256",
          "name": "",
          "type": "uint256"
        }
      ],
      "stateMutability": "view",
      "type": "function"
    },
    {
      "inputs": [],
      "name": "getTotalWaves",
      "outputs": [
        {
          "internalType": "uint256",
          "name": "",
          "type": "uint256"
        }
      ],
      "stateMutability": "view",
      "type": "function"
    },
    {
      "inputs": [
        {
          "internalType": "address",
          "name": "",
          "type": "address"
        }
      ],
      "name": "lastWavedAt",
      "outputs": [
        {
          "internalType": "uint256",
          "name": "",
          "type": "uint256"
        }
      ],
      "stateMutability": "view",
      "type": "function"
    },
    {
      "inputs": [],
      "name": "owner",
      "outputs": [
        {
          "internalType": "address",
          "name": "",
          "type": "address"
        }
      ],
      "stateMutability": "view",
      "type": "function"
    },
    {
      "inputs": [],
      "name": "renounceOwnership",
      "outputs": [],
      "stateMutability": "nonpayable",
      "type": "function"
    },
    {
      "inputs": [
        {
          "internalType": "address",
          "name": "newOwner",
          "type": "address"
        }
      ],
      "name": "transferOwnership",
      "outputs": [],
      "stateMutability": "nonpayable",
      "type": "function"
    },
    {
      "inputs": [
        {
          "internalType": "string",
          "name": "_message",
          "type": "string"
        }
      ],
      "name": "wave",
      "outputs": [],
      "stateMutability": "nonpayable",
      "type": "function"
    }
  ],
  "bytecode": "0x60806040526200002462000018620000ae60201b60201c565b620000b660201b60201c565b6200006f6040518060400160405280601981526020017f57652068617665206265656e20636f6e737472756374656421000000000000008152506200017a60201b620008a01760201c565b606444426200007f9190620002d4565b6200008b919062000371565b600381905550620000a860026200021d60201b620009391760201c565b62000418565b600033905090565b60008060009054906101000a900473ffffffffffffffffffffffffffffffffffffffff169050816000806101000a81548173ffffffffffffffffffffffffffffffffffffffff021916908373ffffffffffffffffffffffffffffffffffffffff1602179055508173ffffffffffffffffffffffffffffffffffffffff168173ffffffffffffffffffffffffffffffffffffffff167f8be0079c531659141344cd1fd0a4f28419497f9722a3daafe3b4186f6b6457e060405160405180910390a35050565b6200021a8160405160240162000191919062000294565b6040516020818303038152906040527f41304fac000000000000000000000000000000000000000000000000000000007bffffffffffffffffffffffffffffffffffffffffffffffffffffffff19166020820180517bffffffffffffffffffffffffffffffffffffffffffffffffffffffff83818316178352505050506200022a60201b60201c565b50565b6000816000018190555050565b60008151905060006a636f6e736f6c652e6c6f679050602083016000808483855afa5050505050565b60006200026082620002b8565b6200026c8185620002c3565b93506200027e8185602086016200033b565b620002898162000407565b840191505092915050565b60006020820190508181036000830152620002b0818462000253565b905092915050565b600081519050919050565b600082825260208201905092915050565b6000620002e18262000331565b9150620002ee8362000331565b9250827fffffffffffffffffffffffffffffffffffffffffffffffffffffffffffffffff03821115620003265762000325620003a9565b5b828201905092915050565b6000819050919050565b60005b838110156200035b5780820151818401526020810190506200033e565b838111156200036b576000848401525b50505050565b60006200037e8262000331565b91506200038b8362000331565b9250826200039e576200039d620003d8565b5b828206905092915050565b7f4e487b7100000000000000000000000000000000000000000000000000000000600052601160045260246000fd5b7f4e487b7100000000000000000000000000000000000000000000000000000000600052601260045260246000fd5b6000601f19601f8301169050919050565b6115ea80620004286000396000f3fe608060405234801561001057600080fd5b50600436106100885760003560e01c80639a2cdc081161005b5780639a2cdc08146100ef578063a42a46631461010d578063bd43a9081461013d578063f2fde38b1461015b57610088565b8063449d46c01461008d578063715018a6146100a95780638da5cb5b146100b35780638e33cffc146100d1575b600080fd5b6100a760048036038101906100a29190610ce0565b610177565b005b6100b161056c565b005b6100bb6105f4565b6040516100c89190610f8f565b60405180910390f35b6100d961061d565b6040516100e691906110ee565b60405180910390f35b6100f761062e565b60405161010491906110ee565b60405180910390f35b61012760048036038101906101229190610cb7565b61063f565b60405161013491906110ee565b60405180910390f35b610145610657565b6040516101529190610faa565b60405180910390f35b61017560048036038101906101709190610cb7565b6107a8565b005b42601e600560003373ffffffffffffffffffffffffffffffffffffffff1673ffffffffffffffffffffffffffffffffffffffff168152602001908152602001600020546101c49190611200565b10610204576040517f08c379a00000000000000000000000000000000000000000000000000000000081526004016101fb906110ae565b60405180910390fd5b42600560003373ffffffffffffffffffffffffffffffffffffffff1673ffffffffffffffffffffffffffffffffffffffff168152602001908152602001600020819055506102526001610946565b6102916040518060400160405280600d81526020017f25732068617320776176656421000000000000000000000000000000000000008152503361095c565b600460405180606001604052803373ffffffffffffffffffffffffffffffffffffffff16815260200183815260200142815250908060018154018082558091505060019003906000526020600020906003020160009091909190915060008201518160000160006101000a81548173ffffffffffffffffffffffffffffffffffffffff021916908373ffffffffffffffffffffffffffffffffffffffff1602179055506020820151816001019080519060200190610350929190610b97565b506040820151816002015550506064600354424461036e9190611200565b6103789190611200565b6103829190611337565b6003819055506103c96040518060400160405280601681526020017f52616e646f6d20232067656e6572617465643a202564000000000000000000008152506003546109f8565b603260035411610519576104126040518060400160405280600781526020017f257320776f6e21000000000000000000000000000000000000000000000000008152503361095c565b6000655af3107a400090506104276002610946565b4781111561046a576040517f08c379a00000000000000000000000000000000000000000000000000000000081526004016104619061106e565b60405180910390fd5b60003373ffffffffffffffffffffffffffffffffffffffff168260405161049090610f7a565b60006040518083038185875af1925050503d80600081146104cd576040519150601f19603f3d011682016040523d82523d6000602084013e6104d2565b606091505b5050905080610516576040517f08c379a000000000000000000000000000000000000000000000000000000000815260040161050d9061108e565b60405180910390fd5b50505b3373ffffffffffffffffffffffffffffffffffffffff167f5f7e16dc676677766a70e9c5628aa6c54ddb8b6e5188e2ae1e1f17f1ffbea7164283604051610561929190611109565b60405180910390a250565b610574610a94565b73ffffffffffffffffffffffffffffffffffffffff166105926105f4565b73ffffffffffffffffffffffffffffffffffffffff16146105e8576040517f08c379a00000000000000000000000000000000000000000000000000000000081526004016105df906110ce565b60405180910390fd5b6105f26000610a9c565b565b60008060009054906101000a900473ffffffffffffffffffffffffffffffffffffffff16905090565b60006106296002610b60565b905090565b600061063a6001610b60565b905090565b60056020528060005260406000206000915090505481565b60606004805480602002602001604051908101604052809291908181526020016000905b8282101561079f57838290600052602060002090600302016040518060600160405290816000820160009054906101000a900473ffffffffffffffffffffffffffffffffffffffff1673ffffffffffffffffffffffffffffffffffffffff1673ffffffffffffffffffffffffffffffffffffffff168152602001600182018054610704906112d4565b80601f0160208091040260200160405190810160405280929190818152602001828054610730906112d4565b801561077d5780601f106107525761010080835404028352916020019161077d565b820191906000526020600020905b81548152906001019060200180831161076057829003601f168201915b505050505081526020016002820154815250508152602001906001019061067b565b50505050905090565b6107b0610a94565b73ffffffffffffffffffffffffffffffffffffffff166107ce6105f4565b73ffffffffffffffffffffffffffffffffffffffff1614610824576040517f08c379a000000000000000000000000000000000000000000000000000000000815260040161081b906110ce565b60405180910390fd5b600073ffffffffffffffffffffffffffffffffffffffff168173ffffffffffffffffffffffffffffffffffffffff161415610894576040517f08c379a000000000000000000000000000000000000000000000000000000000815260040161088b9061104e565b60405180910390fd5b61089d81610a9c565b50565b610936816040516024016108b49190610fcc565b6040516020818303038152906040527f41304fac000000000000000000000000000000000000000000000000000000007bffffffffffffffffffffffffffffffffffffffffffffffffffffffff19166020820180517bffffffffffffffffffffffffffffffffffffffffffffffffffffffff8381831617835250505050610b6e565b50565b6000816000018190555050565b6001816000016000828254019250508190555050565b6109f48282604051602401610972929190610fee565b6040516020818303038152906040527f319af333000000000000000000000000000000000000000000000000000000007bffffffffffffffffffffffffffffffffffffffffffffffffffffffff19166020820180517bffffffffffffffffffffffffffffffffffffffffffffffffffffffff8381831617835250505050610b6e565b5050565b610a908282604051602401610a0e92919061101e565b6040516020818303038152906040527f9710a9d0000000000000000000000000000000000000000000000000000000007bffffffffffffffffffffffffffffffffffffffffffffffffffffffff19166020820180517bffffffffffffffffffffffffffffffffffffffffffffffffffffffff8381831617835250505050610b6e565b5050565b600033905090565b60008060009054906101000a900473ffffffffffffffffffffffffffffffffffffffff169050816000806101000a81548173ffffffffffffffffffffffffffffffffffffffff021916908373ffffffffffffffffffffffffffffffffffffffff1602179055508173ffffffffffffffffffffffffffffffffffffffff168173ffffffffffffffffffffffffffffffffffffffff167f8be0079c531659141344cd1fd0a4f28419497f9722a3daafe3b4186f6b6457e060405160405180910390a35050565b600081600001549050919050565b60008151905060006a636f6e736f6c652e6c6f679050602083016000808483855afa5050505050565b828054610ba3906112d4565b90600052602060002090601f016020900481019282610bc55760008555610c0c565b82601f10610bde57805160ff1916838001178555610c0c565b82800160010185558215610c0c579182015b82811115610c0b578251825591602001919060010190610bf0565b5b509050610c199190610c1d565b5090565b5b80821115610c36576000816000905550600101610c1e565b5090565b6000610c4d610c488461115e565b611139565b905082815260208101848484011115610c6557600080fd5b610c70848285611292565b509392505050565b600081359050610c878161159d565b92915050565b600082601f830112610c9e57600080fd5b8135610cae848260208601610c3a565b91505092915050565b600060208284031215610cc957600080fd5b6000610cd784828501610c78565b91505092915050565b600060208284031215610cf257600080fd5b600082013567ffffffffffffffff811115610d0c57600080fd5b610d1884828501610c8d565b91505092915050565b6000610d2d8383610f0c565b905092915050565b610d3e81611256565b82525050565b610d4d81611256565b82525050565b6000610d5e8261119f565b610d6881856111c2565b935083602082028501610d7a8561118f565b8060005b85811015610db65784840389528151610d978582610d21565b9450610da2836111b5565b925060208a01995050600181019050610d7e565b50829750879550505050505092915050565b6000610dd3826111aa565b610ddd81856111de565b9350610ded8185602086016112a1565b610df681611424565b840191505092915050565b6000610e0c826111aa565b610e1681856111ef565b9350610e268185602086016112a1565b610e2f81611424565b840191505092915050565b6000610e476026836111ef565b9150610e5282611435565b604082019050919050565b6000610e6a6034836111ef565b9150610e7582611484565b604082019050919050565b6000610e8d6027836111ef565b9150610e98826114d3565b604082019050919050565b6000610eb06029836111ef565b9150610ebb82611522565b604082019050919050565b6000610ed36020836111ef565b9150610ede82611571565b602082019050919050565b6000610ef66000836111d3565b9150610f018261159a565b600082019050919050565b6000606083016000830151610f246000860182610d35565b5060208301518482036020860152610f3c8282610dc8565b9150506040830151610f516040860182610f5c565b508091505092915050565b610f6581611288565b82525050565b610f7481611288565b82525050565b6000610f8582610ee9565b9150819050919050565b6000602082019050610fa46000830184610d44565b92915050565b60006020820190508181036000830152610fc48184610d53565b905092915050565b60006020820190508181036000830152610fe68184610e01565b905092915050565b600060408201905081810360008301526110088185610e01565b90506110176020830184610d44565b9392505050565b600060408201905081810360008301526110388185610e01565b90506110476020830184610f6b565b9392505050565b6000602082019050818103600083015261106781610e3a565b9050919050565b6000602082019050818103600083015261108781610e5d565b9050919050565b600060208201905081810360008301526110a781610e80565b9050919050565b600060208201905081810360008301526110c781610ea3565b9050919050565b600060208201905081810360008301526110e781610ec6565b9050919050565b60006020820190506111036000830184610f6b565b92915050565b600060408201905061111e6000830185610f6b565b81810360208301526111308184610e01565b90509392505050565b6000611143611154565b905061114f8282611306565b919050565b6000604051905090565b600067ffffffffffffffff821115611179576111786113f5565b5b61118282611424565b9050602081019050919050565b6000819050602082019050919050565b600081519050919050565b600081519050919050565b6000602082019050919050565b600082825260208201905092915050565b600081905092915050565b600082825260208201905092915050565b600082825260208201905092915050565b600061120b82611288565b915061121683611288565b9250827fffffffffffffffffffffffffffffffffffffffffffffffffffffffffffffffff0382111561124b5761124a611368565b5b828201905092915050565b600061126182611268565b9050919050565b600073ffffffffffffffffffffffffffffffffffffffff82169050919050565b6000819050919050565b82818337600083830152505050565b60005b838110156112bf5780820151818401526020810190506112a4565b838111156112ce576000848401525b50505050565b600060028204905060018216806112ec57607f821691505b60208210811415611300576112ff6113c6565b5b50919050565b61130f82611424565b810181811067ffffffffffffffff8211171561132e5761132d6113f5565b5b80604052505050565b600061134282611288565b915061134d83611288565b92508261135d5761135c611397565b5b828206905092915050565b7f4e487b7100000000000000000000000000000000000000000000000000000000600052601160045260246000fd5b7f4e487b7100000000000000000000000000000000000000000000000000000000600052601260045260246000fd5b7f4e487b7100000000000000000000000000000000000000000000000000000000600052602260045260246000fd5b7f4e487b7100000000000000000000000000000000000000000000000000000000600052604160045260246000fd5b6000601f19601f8301169050919050565b7f4f776e61626c653a206e6577206f776e657220697320746865207a65726f206160008201527f6464726573730000000000000000000000000000000000000000000000000000602082015250565b7f547279696e6720746f207769746864726177206d6f7265206d6f6e657920746860008201527f616e2074686520636f6e7472616374206861732e000000000000000000000000602082015250565b7f4661696c656420746f207769746864726177206d6f6e65792066726f6d20636f60008201527f6e74726163742e00000000000000000000000000000000000000000000000000602082015250565b7f4d7573742077616974203330207365636f6e6473206265666f7265207761766960008201527f6e6720616761696e2e0000000000000000000000000000000000000000000000602082015250565b7f4f776e61626c653a2063616c6c6572206973206e6f7420746865206f776e6572600082015250565b50565b6115a681611256565b81146115b157600080fd5b5056fea2646970667358221220d664145fd66b2f875f7fbe956909efe39323e96800672bb4052a23a6a4f2fece64736f6c63430008040033",
  "linkReferences": {},
  "deployedLinkReferences": {}
}