{
  "_format": "hh-sol-artifact-1",
  "contractName": "WavePortal",
  "sourceName": "contracts/WavePortal.sol",
  "abi": [
    {
      "inputs": [],
      "stateMutability": "payable",
      "type": "constructor"
    },
    {
      "anonymous": false,
      "inputs": [
        {
          "indexed": true,
          "internalType": "address",
          "name": "from",
          "type": "address"
        },
        {
          "indexed": false,
          "internalType": "uint256",
          "name": "timestamp",
          "type": "uint256"
        },
        {
          "indexed": false,
          "internalType": "string",
          "name": "message",
          "type": "string"
        }
      ],
      "name": "NewWave",
      "type": "event"
    },
    {
      "anonymous": false,
      "inputs": [
        {
          "indexed": true,
          "internalType": "address",
          "name": "previousOwner",
          "type": "address"
        },
        {
          "indexed": true,
          "internalType": "address",
          "name": "newOwner",
          "type": "address"
        }
      ],
      "name": "OwnershipTransferred",
      "type": "event"
    },
    {
      "anonymous": false,
      "inputs": [
        {
          "indexed": false,
          "internalType": "address",
          "name": "_user",
          "type": "address"
        },
        {
          "indexed": false,
          "internalType": "uint256",
          "name": "_time",
          "type": "uint256"
        },
        {
          "indexed": false,
          "internalType": "bytes32",
          "name": "_note",
          "type": "bytes32"
        }
      ],
      "name": "PrizeAwarded",
      "type": "event"
    },
    {
      "inputs": [],
      "name": "getAllWaves",
      "outputs": [
        {
          "components": [
            {
              "internalType": "address",
              "name": "waver",
              "type": "address"
            },
            {
              "internalType": "string",
              "name": "message",
              "type": "string"
            },
            {
              "internalType": "uint256",
              "name": "timestamp",
              "type": "uint256"
            }
          ],
          "internalType": "struct WavePortal.Wave[]",
          "name": "",
          "type": "tuple[]"
        }
      ],
      "stateMutability": "view",
      "type": "function"
    },
    {
      "inputs": [],
      "name": "getNumberOfWinners",
      "outputs": [
        {
          "internalType": "uint256",
          "name": "",
          "type": "uint256"
        }
      ],
      "stateMutability": "view",
      "type": "function"
    },
    {
      "inputs": [],
      "name": "getTotalWaves",
      "outputs": [
        {
          "internalType": "uint256",
          "name": "",
          "type": "uint256"
        }
      ],
      "stateMutability": "view",
      "type": "function"
    },
    {
      "inputs": [
        {
          "internalType": "address",
          "name": "",
          "type": "address"
        }
      ],
      "name": "lastWavedAt",
      "outputs": [
        {
          "internalType": "uint256",
          "name": "",
          "type": "uint256"
        }
      ],
      "stateMutability": "view",
      "type": "function"
    },
    {
      "inputs": [],
      "name": "owner",
      "outputs": [
        {
          "internalType": "address",
          "name": "",
          "type": "address"
        }
      ],
      "stateMutability": "view",
      "type": "function"
    },
    {
      "inputs": [],
      "name": "renounceOwnership",
      "outputs": [],
      "stateMutability": "nonpayable",
      "type": "function"
    },
    {
      "inputs": [
        {
          "internalType": "address",
          "name": "newOwner",
          "type": "address"
        }
      ],
      "name": "transferOwnership",
      "outputs": [],
      "stateMutability": "nonpayable",
      "type": "function"
    },
    {
      "inputs": [
        {
          "internalType": "string",
          "name": "_message",
          "type": "string"
        }
      ],
      "name": "wave",
      "outputs": [],
      "stateMutability": "nonpayable",
      "type": "function"
    }
  ],
  "bytecode": "0x60806040526200002462000018620000ae60201b60201c565b620000b660201b60201c565b6200006f6040518060400160405280601981526020017f57652068617665206265656e20636f6e737472756374656421000000000000008152506200017a60201b6200089a1760201c565b606444426200007f9190620002d4565b6200008b919062000371565b600381905550620000a860026200021d60201b620009331760201c565b62000418565b600033905090565b60008060009054906101000a900473ffffffffffffffffffffffffffffffffffffffff169050816000806101000a81548173ffffffffffffffffffffffffffffffffffffffff021916908373ffffffffffffffffffffffffffffffffffffffff1602179055508173ffffffffffffffffffffffffffffffffffffffff168173ffffffffffffffffffffffffffffffffffffffff167f8be0079c531659141344cd1fd0a4f28419497f9722a3daafe3b4186f6b6457e060405160405180910390a35050565b6200021a8160405160240162000191919062000294565b6040516020818303038152906040527f41304fac000000000000000000000000000000000000000000000000000000007bffffffffffffffffffffffffffffffffffffffffffffffffffffffff19166020820180517bffffffffffffffffffffffffffffffffffffffffffffffffffffffff83818316178352505050506200022a60201b60201c565b50565b6000816000018190555050565b60008151905060006a636f6e736f6c652e6c6f679050602083016000808483855afa5050505050565b60006200026082620002b8565b6200026c8185620002c3565b93506200027e8185602086016200033b565b620002898162000407565b840191505092915050565b60006020820190508181036000830152620002b0818462000253565b905092915050565b600081519050919050565b600082825260208201905092915050565b6000620002e18262000331565b9150620002ee8362000331565b9250827fffffffffffffffffffffffffffffffffffffffffffffffffffffffffffffffff03821115620003265762000325620003a9565b5b828201905092915050565b6000819050919050565b60005b838110156200035b5780820151818401526020810190506200033e565b838111156200036b576000848401525b50505050565b60006200037e8262000331565b91506200038b8362000331565b9250826200039e576200039d620003d8565b5b828206905092915050565b7f4e487b7100000000000000000000000000000000000000000000000000000000600052601160045260246000fd5b7f4e487b7100000000000000000000000000000000000000000000000000000000600052601260045260246000fd5b6000601f19601f8301169050919050565b61163f80620004286000396000f3fe608060405234801561001057600080fd5b50600436106100885760003560e01c80639a2cdc081161005b5780639a2cdc08146100ef578063a42a46631461010d578063bd43a9081461013d578063f2fde38b1461015b57610088565b8063449d46c01461008d578063715018a6146100a95780638da5cb5b146100b35780638e33cffc146100d1575b600080fd5b6100a760048036038101906100a29190610cda565b610177565b005b6100b1610566565b005b6100bb6105ee565b6040516100c89190610faf565b60405180910390f35b6100d9610617565b6040516100e69190611143565b60405180910390f35b6100f7610628565b6040516101049190611143565b60405180910390f35b61012760048036038101906101229190610cb1565b610639565b6040516101349190611143565b60405180910390f35b610145610651565b6040516101529190610fff565b60405180910390f35b61017560048036038101906101709190610cb1565b6107a2565b005b42601e600460003373ffffffffffffffffffffffffffffffffffffffff1673ffffffffffffffffffffffffffffffffffffffff168152602001908152602001600020546101c49190611255565b10610204576040517f08c379a00000000000000000000000000000000000000000000000000000000081526004016101fb90611103565b60405180910390fd5b42600460003373ffffffffffffffffffffffffffffffffffffffff1673ffffffffffffffffffffffffffffffffffffffff168152602001908152602001600020819055506102526001610940565b600560405180606001604052803373ffffffffffffffffffffffffffffffffffffffff16815260200183815260200142815250908060018154018082558091505060019003906000526020600020906003020160009091909190915060008201518160000160006101000a81548173ffffffffffffffffffffffffffffffffffffffff021916908373ffffffffffffffffffffffffffffffffffffffff1602179055506020820151816001019080519060200190610311929190610b91565b506040820151816002015550506064600354424461032f9190611255565b6103399190611255565b610343919061138c565b60038190555061038a6040518060400160405280601681526020017f52616e646f6d20232067656e6572617465643a20256400000000000000000000815250600354610956565b603260035411610513576103d36040518060400160405280600781526020017f257320776f6e2100000000000000000000000000000000000000000000000000815250336109f2565b6000655af3107a400090506103e86002610940565b7f5b56f1aabe0658db5ab2dc5907266fccac5ae8c4b339df2c223dd4e794901b9d3342604051610419929190610fca565b60405180910390a147811115610464576040517f08c379a000000000000000000000000000000000000000000000000000000000815260040161045b906110c3565b60405180910390fd5b60003373ffffffffffffffffffffffffffffffffffffffff168260405161048a90610f9a565b60006040518083038185875af1925050503d80600081146104c7576040519150601f19603f3d011682016040523d82523d6000602084013e6104cc565b606091505b5050905080610510576040517f08c379a0000000000000000000000000000000000000000000000000000000008152600401610507906110e3565b60405180910390fd5b50505b3373ffffffffffffffffffffffffffffffffffffffff167f5f7e16dc676677766a70e9c5628aa6c54ddb8b6e5188e2ae1e1f17f1ffbea716428360405161055b92919061115e565b60405180910390a250565b61056e610a8e565b73ffffffffffffffffffffffffffffffffffffffff1661058c6105ee565b73ffffffffffffffffffffffffffffffffffffffff16146105e2576040517f08c379a00000000000000000000000000000000000000000000000000000000081526004016105d990611123565b60405180910390fd5b6105ec6000610a96565b565b60008060009054906101000a900473ffffffffffffffffffffffffffffffffffffffff16905090565b60006106236002610b5a565b905090565b60006106346001610b5a565b905090565b60046020528060005260406000206000915090505481565b60606005805480602002602001604051908101604052809291908181526020016000905b8282101561079957838290600052602060002090600302016040518060600160405290816000820160009054906101000a900473ffffffffffffffffffffffffffffffffffffffff1673ffffffffffffffffffffffffffffffffffffffff1673ffffffffffffffffffffffffffffffffffffffff1681526020016001820180546106fe90611329565b80601f016020809104026020016040519081016040528092919081815260200182805461072a90611329565b80156107775780601f1061074c57610100808354040283529160200191610777565b820191906000526020600020905b81548152906001019060200180831161075a57829003601f168201915b5050505050815260200160028201548152505081526020019060010190610675565b50505050905090565b6107aa610a8e565b73ffffffffffffffffffffffffffffffffffffffff166107c86105ee565b73ffffffffffffffffffffffffffffffffffffffff161461081e576040517f08c379a000000000000000000000000000000000000000000000000000000000815260040161081590611123565b60405180910390fd5b600073ffffffffffffffffffffffffffffffffffffffff168173ffffffffffffffffffffffffffffffffffffffff16141561088e576040517f08c379a0000000000000000000000000000000000000000000000000000000008152600401610885906110a3565b60405180910390fd5b61089781610a96565b50565b610930816040516024016108ae9190611021565b6040516020818303038152906040527f41304fac000000000000000000000000000000000000000000000000000000007bffffffffffffffffffffffffffffffffffffffffffffffffffffffff19166020820180517bffffffffffffffffffffffffffffffffffffffffffffffffffffffff8381831617835250505050610b68565b50565b6000816000018190555050565b6001816000016000828254019250508190555050565b6109ee828260405160240161096c929190611073565b6040516020818303038152906040527f9710a9d0000000000000000000000000000000000000000000000000000000007bffffffffffffffffffffffffffffffffffffffffffffffffffffffff19166020820180517bffffffffffffffffffffffffffffffffffffffffffffffffffffffff8381831617835250505050610b68565b5050565b610a8a8282604051602401610a08929190611043565b6040516020818303038152906040527f319af333000000000000000000000000000000000000000000000000000000007bffffffffffffffffffffffffffffffffffffffffffffffffffffffff19166020820180517bffffffffffffffffffffffffffffffffffffffffffffffffffffffff8381831617835250505050610b68565b5050565b600033905090565b60008060009054906101000a900473ffffffffffffffffffffffffffffffffffffffff169050816000806101000a81548173ffffffffffffffffffffffffffffffffffffffff021916908373ffffffffffffffffffffffffffffffffffffffff1602179055508173ffffffffffffffffffffffffffffffffffffffff168173ffffffffffffffffffffffffffffffffffffffff167f8be0079c531659141344cd1fd0a4f28419497f9722a3daafe3b4186f6b6457e060405160405180910390a35050565b600081600001549050919050565b60008151905060006a636f6e736f6c652e6c6f679050602083016000808483855afa5050505050565b828054610b9d90611329565b90600052602060002090601f016020900481019282610bbf5760008555610c06565b82601f10610bd857805160ff1916838001178555610c06565b82800160010185558215610c06579182015b82811115610c05578251825591602001919060010190610bea565b5b509050610c139190610c17565b5090565b5b80821115610c30576000816000905550600101610c18565b5090565b6000610c47610c42846111b3565b61118e565b905082815260208101848484011115610c5f57600080fd5b610c6a8482856112e7565b509392505050565b600081359050610c81816115f2565b92915050565b600082601f830112610c9857600080fd5b8135610ca8848260208601610c34565b91505092915050565b600060208284031215610cc357600080fd5b6000610cd184828501610c72565b91505092915050565b600060208284031215610cec57600080fd5b600082013567ffffffffffffffff811115610d0657600080fd5b610d1284828501610c87565b91505092915050565b6000610d278383610f2c565b905092915050565b610d38816112ab565b82525050565b610d47816112ab565b82525050565b6000610d58826111f4565b610d628185611217565b935083602082028501610d74856111e4565b8060005b85811015610db05784840389528151610d918582610d1b565b9450610d9c8361120a565b925060208a01995050600181019050610d78565b50829750879550505050505092915050565b6000610dcd826111ff565b610dd78185611233565b9350610de78185602086016112f6565b610df081611479565b840191505092915050565b6000610e06826111ff565b610e108185611244565b9350610e208185602086016112f6565b610e2981611479565b840191505092915050565b6000610e41602683611244565b9150610e4c8261148a565b604082019050919050565b6000610e64603483611244565b9150610e6f826114d9565b604082019050919050565b6000610e87602783611244565b9150610e9282611528565b604082019050919050565b6000610eaa602983611244565b9150610eb582611577565b604082019050919050565b6000610ecd602083611244565b9150610ed8826115c6565b602082019050919050565b7f48757a7a61682100000000000000000000000000000000000000000000000000815250565b6000610f16600083611228565b9150610f21826115ef565b600082019050919050565b6000606083016000830151610f446000860182610d2f565b5060208301518482036020860152610f5c8282610dc2565b9150506040830151610f716040860182610f7c565b508091505092915050565b610f85816112dd565b82525050565b610f94816112dd565b82525050565b6000610fa582610f09565b9150819050919050565b6000602082019050610fc46000830184610d3e565b92915050565b6000606082019050610fdf6000830185610d3e565b610fec6020830184610f8b565b610ff860408301610ee3565b9392505050565b600060208201905081810360008301526110198184610d4d565b905092915050565b6000602082019050818103600083015261103b8184610dfb565b905092915050565b6000604082019050818103600083015261105d8185610dfb565b905061106c6020830184610d3e565b9392505050565b6000604082019050818103600083015261108d8185610dfb565b905061109c6020830184610f8b565b9392505050565b600060208201905081810360008301526110bc81610e34565b9050919050565b600060208201905081810360008301526110dc81610e57565b9050919050565b600060208201905081810360008301526110fc81610e7a565b9050919050565b6000602082019050818103600083015261111c81610e9d565b9050919050565b6000602082019050818103600083015261113c81610ec0565b9050919050565b60006020820190506111586000830184610f8b565b92915050565b60006040820190506111736000830185610f8b565b81810360208301526111858184610dfb565b90509392505050565b60006111986111a9565b90506111a4828261135b565b919050565b6000604051905090565b600067ffffffffffffffff8211156111ce576111cd61144a565b5b6111d782611479565b9050602081019050919050565b6000819050602082019050919050565b600081519050919050565b600081519050919050565b6000602082019050919050565b600082825260208201905092915050565b600081905092915050565b600082825260208201905092915050565b600082825260208201905092915050565b6000611260826112dd565b915061126b836112dd565b9250827fffffffffffffffffffffffffffffffffffffffffffffffffffffffffffffffff038211156112a05761129f6113bd565b5b828201905092915050565b60006112b6826112bd565b9050919050565b600073ffffffffffffffffffffffffffffffffffffffff82169050919050565b6000819050919050565b82818337600083830152505050565b60005b838110156113145780820151818401526020810190506112f9565b83811115611323576000848401525b50505050565b6000600282049050600182168061134157607f821691505b602082108114156113555761135461141b565b5b50919050565b61136482611479565b810181811067ffffffffffffffff821117156113835761138261144a565b5b80604052505050565b6000611397826112dd565b91506113a2836112dd565b9250826113b2576113b16113ec565b5b828206905092915050565b7f4e487b7100000000000000000000000000000000000000000000000000000000600052601160045260246000fd5b7f4e487b7100000000000000000000000000000000000000000000000000000000600052601260045260246000fd5b7f4e487b7100000000000000000000000000000000000000000000000000000000600052602260045260246000fd5b7f4e487b7100000000000000000000000000000000000000000000000000000000600052604160045260246000fd5b6000601f19601f8301169050919050565b7f4f776e61626c653a206e6577206f776e657220697320746865207a65726f206160008201527f6464726573730000000000000000000000000000000000000000000000000000602082015250565b7f547279696e6720746f207769746864726177206d6f7265206d6f6e657920746860008201527f616e2074686520636f6e7472616374206861732e000000000000000000000000602082015250565b7f4661696c656420746f207769746864726177206d6f6e65792066726f6d20636f60008201527f6e74726163742e00000000000000000000000000000000000000000000000000602082015250565b7f4d7573742077616974203330207365636f6e6473206265666f7265207761766960008201527f6e6720616761696e2e0000000000000000000000000000000000000000000000602082015250565b7f4f776e61626c653a2063616c6c6572206973206e6f7420746865206f776e6572600082015250565b50565b6115fb816112ab565b811461160657600080fd5b5056fea26469706673582212202f439f882196ed46e913a0b51f38018e1805e964011cda53354925e572c9c8a364736f6c63430008040033",
  "linkReferences": {},
  "deployedLinkReferences": {}
}