{
  "_format": "hh-sol-artifact-1",
  "contractName": "WavePortal",
  "sourceName": "contracts/WavePortal.sol",
  "abi": [
    {
      "inputs": [],
      "stateMutability": "payable",
      "type": "constructor"
    },
    {
      "anonymous": false,
      "inputs": [
        {
          "indexed": true,
          "internalType": "address",
          "name": "from",
          "type": "address"
        },
        {
          "indexed": false,
          "internalType": "uint256",
          "name": "timestamp",
          "type": "uint256"
        },
        {
          "indexed": false,
          "internalType": "string",
          "name": "message",
          "type": "string"
        }
      ],
      "name": "NewWave",
      "type": "event"
    },
    {
      "anonymous": false,
      "inputs": [
        {
          "indexed": true,
          "internalType": "address",
          "name": "previousOwner",
          "type": "address"
        },
        {
          "indexed": true,
          "internalType": "address",
          "name": "newOwner",
          "type": "address"
        }
      ],
      "name": "OwnershipTransferred",
      "type": "event"
    },
    {
      "anonymous": false,
      "inputs": [
        {
          "indexed": false,
          "internalType": "string",
          "name": "_username",
          "type": "string"
        },
        {
          "indexed": false,
          "internalType": "address",
          "name": "_user",
          "type": "address"
        },
        {
          "indexed": false,
          "internalType": "uint256",
          "name": "_time",
          "type": "uint256"
        },
        {
          "indexed": false,
          "internalType": "bytes32",
          "name": "_note",
          "type": "bytes32"
        }
      ],
      "name": "PrizeAwarded",
      "type": "event"
    },
    {
      "inputs": [],
      "name": "getAllWaves",
      "outputs": [
        {
          "components": [
            {
              "internalType": "string",
              "name": "username",
              "type": "string"
            },
            {
              "internalType": "address",
              "name": "waver",
              "type": "address"
            },
            {
              "internalType": "string",
              "name": "message",
              "type": "string"
            },
            {
              "internalType": "uint256",
              "name": "timestamp",
              "type": "uint256"
            }
          ],
          "internalType": "struct WavePortal.Wave[]",
          "name": "",
          "type": "tuple[]"
        }
      ],
      "stateMutability": "view",
      "type": "function"
    },
    {
      "inputs": [],
      "name": "getNumberOfWinners",
      "outputs": [
        {
          "internalType": "uint256",
          "name": "",
          "type": "uint256"
        }
      ],
      "stateMutability": "view",
      "type": "function"
    },
    {
      "inputs": [],
      "name": "getTotalWaves",
      "outputs": [
        {
          "internalType": "uint256",
          "name": "",
          "type": "uint256"
        }
      ],
      "stateMutability": "view",
      "type": "function"
    },
    {
      "inputs": [
        {
          "internalType": "address",
          "name": "",
          "type": "address"
        }
      ],
      "name": "lastWavedAt",
      "outputs": [
        {
          "internalType": "uint256",
          "name": "",
          "type": "uint256"
        }
      ],
      "stateMutability": "view",
      "type": "function"
    },
    {
      "inputs": [],
      "name": "owner",
      "outputs": [
        {
          "internalType": "address",
          "name": "",
          "type": "address"
        }
      ],
      "stateMutability": "view",
      "type": "function"
    },
    {
      "inputs": [],
      "name": "renounceOwnership",
      "outputs": [],
      "stateMutability": "nonpayable",
      "type": "function"
    },
    {
      "inputs": [
        {
          "internalType": "address",
          "name": "newOwner",
          "type": "address"
        }
      ],
      "name": "transferOwnership",
      "outputs": [],
      "stateMutability": "nonpayable",
      "type": "function"
    },
    {
      "inputs": [
        {
          "internalType": "string",
          "name": "_username",
          "type": "string"
        },
        {
          "internalType": "string",
          "name": "_message",
          "type": "string"
        }
      ],
      "name": "wave",
      "outputs": [],
      "stateMutability": "nonpayable",
      "type": "function"
    }
  ],
  "bytecode": "0x60806040526200002462000018620000ae60201b60201c565b620000b660201b60201c565b6200006f6040518060400160405280601981526020017f57652068617665206265656e20636f6e737472756374656421000000000000008152506200017a60201b620009921760201c565b606444426200007f9190620002d4565b6200008b919062000371565b600381905550620000a860026200021d60201b62000a2b1760201c565b62000418565b600033905090565b60008060009054906101000a900473ffffffffffffffffffffffffffffffffffffffff169050816000806101000a81548173ffffffffffffffffffffffffffffffffffffffff021916908373ffffffffffffffffffffffffffffffffffffffff1602179055508173ffffffffffffffffffffffffffffffffffffffff168173ffffffffffffffffffffffffffffffffffffffff167f8be0079c531659141344cd1fd0a4f28419497f9722a3daafe3b4186f6b6457e060405160405180910390a35050565b6200021a8160405160240162000191919062000294565b6040516020818303038152906040527f41304fac000000000000000000000000000000000000000000000000000000007bffffffffffffffffffffffffffffffffffffffffffffffffffffffff19166020820180517bffffffffffffffffffffffffffffffffffffffffffffffffffffffff83818316178352505050506200022a60201b60201c565b50565b6000816000018190555050565b60008151905060006a636f6e736f6c652e6c6f679050602083016000808483855afa5050505050565b60006200026082620002b8565b6200026c8185620002c3565b93506200027e8185602086016200033b565b620002898162000407565b840191505092915050565b60006020820190508181036000830152620002b0818462000253565b905092915050565b600081519050919050565b600082825260208201905092915050565b6000620002e18262000331565b9150620002ee8362000331565b9250827fffffffffffffffffffffffffffffffffffffffffffffffffffffffffffffffff03821115620003265762000325620003a9565b5b828201905092915050565b6000819050919050565b60005b838110156200035b5780820151818401526020810190506200033e565b838111156200036b576000848401525b50505050565b60006200037e8262000331565b91506200038b8362000331565b9250826200039e576200039d620003d8565b5b828206905092915050565b7f4e487b7100000000000000000000000000000000000000000000000000000000600052601160045260246000fd5b7f4e487b7100000000000000000000000000000000000000000000000000000000600052601260045260246000fd5b6000601f19601f8301169050919050565b61183e80620004286000396000f3fe608060405234801561001057600080fd5b50600436106100885760003560e01c80639a2cdc081161005b5780639a2cdc08146100ef578063a42a46631461010d578063bd43a9081461013d578063f2fde38b1461015b57610088565b8063518729591461008d578063715018a6146100a95780638da5cb5b146100b35780638e33cffc146100d1575b600080fd5b6100a760048036038101906100a29190610e6e565b610177565b005b6100b16105cc565b005b6100bb610654565b6040516100c89190611188565b60405180910390f35b6100d961067d565b6040516100e69190611368565b60405180910390f35b6100f761068e565b6040516101049190611368565b60405180910390f35b61012760048036038101906101229190610e45565b61069f565b6040516101349190611368565b60405180910390f35b6101456106b7565b60405161015291906111a3565b60405180910390f35b61017560048036038101906101709190610e45565b61089a565b005b42610384600460003373ffffffffffffffffffffffffffffffffffffffff1673ffffffffffffffffffffffffffffffffffffffff168152602001908152602001600020546101c5919061147a565b10610205576040517f08c379a00000000000000000000000000000000000000000000000000000000081526004016101fc90611348565b60405180910390fd5b42600460003373ffffffffffffffffffffffffffffffffffffffff1673ffffffffffffffffffffffffffffffffffffffff168152602001908152602001600020819055506102536001610a38565b600560405180608001604052808481526020013373ffffffffffffffffffffffffffffffffffffffff16815260200183815260200142815250908060018154018082558091505060019003906000526020600020906004020160009091909190915060008201518160000190805190602001906102d1929190610d25565b5060208201518160010160006101000a81548173ffffffffffffffffffffffffffffffffffffffff021916908373ffffffffffffffffffffffffffffffffffffffff1602179055506040820151816002019080519060200190610335929190610d25565b5060608201518160030155505060646003544244610353919061147a565b61035d919061147a565b61036791906115b1565b6003819055506103ae6040518060400160405280601681526020017f52616e646f6d20232067656e6572617465643a20256400000000000000000000815250600354610a4e565b6103ed6040518060400160405280600f81526020017f5375626d6974746564206279202573000000000000000000000000000000000081525083610aea565b601460035411610578576104366040518060400160405280600781526020017f257320776f6e210000000000000000000000000000000000000000000000000081525033610b86565b6000655af3107a4000905061044b6002610a38565b7f941012aa926875905a4d282b62b9fc55cc24cb15706ffb66681603eb2d9fff8a83334260405161047e93929190611217565b60405180910390a1478111156104c9576040517f08c379a00000000000000000000000000000000000000000000000000000000081526004016104c0906112e8565b60405180910390fd5b60003373ffffffffffffffffffffffffffffffffffffffff16826040516104ef90611173565b60006040518083038185875af1925050503d806000811461052c576040519150601f19603f3d011682016040523d82523d6000602084013e610531565b606091505b5050905080610575576040517f08c379a000000000000000000000000000000000000000000000000000000000815260040161056c90611308565b60405180910390fd5b50505b3373ffffffffffffffffffffffffffffffffffffffff167f5f7e16dc676677766a70e9c5628aa6c54ddb8b6e5188e2ae1e1f17f1ffbea71642836040516105c0929190611383565b60405180910390a25050565b6105d4610c22565b73ffffffffffffffffffffffffffffffffffffffff166105f2610654565b73ffffffffffffffffffffffffffffffffffffffff1614610648576040517f08c379a000000000000000000000000000000000000000000000000000000000815260040161063f90611328565b60405180910390fd5b6106526000610c2a565b565b60008060009054906101000a900473ffffffffffffffffffffffffffffffffffffffff16905090565b60006106896002610cee565b905090565b600061069a6001610cee565b905090565b60046020528060005260406000206000915090505481565b60606005805480602002602001604051908101604052809291908181526020016000905b82821015610891578382906000526020600020906004020160405180608001604052908160008201805461070e9061154e565b80601f016020809104026020016040519081016040528092919081815260200182805461073a9061154e565b80156107875780601f1061075c57610100808354040283529160200191610787565b820191906000526020600020905b81548152906001019060200180831161076a57829003601f168201915b505050505081526020016001820160009054906101000a900473ffffffffffffffffffffffffffffffffffffffff1673ffffffffffffffffffffffffffffffffffffffff1673ffffffffffffffffffffffffffffffffffffffff1681526020016002820180546107f69061154e565b80601f01602080910402602001604051908101604052809291908181526020018280546108229061154e565b801561086f5780601f106108445761010080835404028352916020019161086f565b820191906000526020600020905b81548152906001019060200180831161085257829003601f168201915b50505050508152602001600382015481525050815260200190600101906106db565b50505050905090565b6108a2610c22565b73ffffffffffffffffffffffffffffffffffffffff166108c0610654565b73ffffffffffffffffffffffffffffffffffffffff1614610916576040517f08c379a000000000000000000000000000000000000000000000000000000000815260040161090d90611328565b60405180910390fd5b600073ffffffffffffffffffffffffffffffffffffffff168173ffffffffffffffffffffffffffffffffffffffff161415610986576040517f08c379a000000000000000000000000000000000000000000000000000000000815260040161097d906112c8565b60405180910390fd5b61098f81610c2a565b50565b610a28816040516024016109a691906111c5565b6040516020818303038152906040527f41304fac000000000000000000000000000000000000000000000000000000007bffffffffffffffffffffffffffffffffffffffffffffffffffffffff19166020820180517bffffffffffffffffffffffffffffffffffffffffffffffffffffffff8381831617835250505050610cfc565b50565b6000816000018190555050565b6001816000016000828254019250508190555050565b610ae68282604051602401610a64929190611298565b6040516020818303038152906040527f9710a9d0000000000000000000000000000000000000000000000000000000007bffffffffffffffffffffffffffffffffffffffffffffffffffffffff19166020820180517bffffffffffffffffffffffffffffffffffffffffffffffffffffffff8381831617835250505050610cfc565b5050565b610b828282604051602401610b00929190611261565b6040516020818303038152906040527f4b5c4277000000000000000000000000000000000000000000000000000000007bffffffffffffffffffffffffffffffffffffffffffffffffffffffff19166020820180517bffffffffffffffffffffffffffffffffffffffffffffffffffffffff8381831617835250505050610cfc565b5050565b610c1e8282604051602401610b9c9291906111e7565b6040516020818303038152906040527f319af333000000000000000000000000000000000000000000000000000000007bffffffffffffffffffffffffffffffffffffffffffffffffffffffff19166020820180517bffffffffffffffffffffffffffffffffffffffffffffffffffffffff8381831617835250505050610cfc565b5050565b600033905090565b60008060009054906101000a900473ffffffffffffffffffffffffffffffffffffffff169050816000806101000a81548173ffffffffffffffffffffffffffffffffffffffff021916908373ffffffffffffffffffffffffffffffffffffffff1602179055508173ffffffffffffffffffffffffffffffffffffffff168173ffffffffffffffffffffffffffffffffffffffff167f8be0079c531659141344cd1fd0a4f28419497f9722a3daafe3b4186f6b6457e060405160405180910390a35050565b600081600001549050919050565b60008151905060006a636f6e736f6c652e6c6f679050602083016000808483855afa5050505050565b828054610d319061154e565b90600052602060002090601f016020900481019282610d535760008555610d9a565b82601f10610d6c57805160ff1916838001178555610d9a565b82800160010185558215610d9a579182015b82811115610d99578251825591602001919060010190610d7e565b5b509050610da79190610dab565b5090565b5b80821115610dc4576000816000905550600101610dac565b5090565b6000610ddb610dd6846113d8565b6113b3565b905082815260208101848484011115610df357600080fd5b610dfe84828561150c565b509392505050565b600081359050610e15816117f1565b92915050565b600082601f830112610e2c57600080fd5b8135610e3c848260208601610dc8565b91505092915050565b600060208284031215610e5757600080fd5b6000610e6584828501610e06565b91505092915050565b60008060408385031215610e8157600080fd5b600083013567ffffffffffffffff811115610e9b57600080fd5b610ea785828601610e1b565b925050602083013567ffffffffffffffff811115610ec457600080fd5b610ed085828601610e1b565b9150509250929050565b6000610ee683836110eb565b905092915050565b610ef7816114d0565b82525050565b610f06816114d0565b82525050565b6000610f1782611419565b610f21818561143c565b935083602082028501610f3385611409565b8060005b85811015610f6f5784840389528151610f508582610eda565b9450610f5b8361142f565b925060208a01995050600181019050610f37565b50829750879550505050505092915050565b6000610f8c82611424565b610f968185611458565b9350610fa681856020860161151b565b610faf8161169e565b840191505092915050565b6000610fc582611424565b610fcf8185611469565b9350610fdf81856020860161151b565b610fe88161169e565b840191505092915050565b6000611000602683611469565b915061100b826116af565b604082019050919050565b6000611023603483611469565b915061102e826116fe565b604082019050919050565b6000611046602783611469565b91506110518261174d565b604082019050919050565b6000611069602083611469565b91506110748261179c565b602082019050919050565b7f48757a7a61682100000000000000000000000000000000000000000000000000815250565b60006110b260008361144d565b91506110bd826117c5565b600082019050919050565b60006110d5600883611469565b91506110e0826117c8565b602082019050919050565b600060808301600083015184820360008601526111088282610f81565b915050602083015161111d6020860182610eee565b50604083015184820360408601526111358282610f81565b915050606083015161114a6060860182611155565b508091505092915050565b61115e81611502565b82525050565b61116d81611502565b82525050565b600061117e826110a5565b9150819050919050565b600060208201905061119d6000830184610efd565b92915050565b600060208201905081810360008301526111bd8184610f0c565b905092915050565b600060208201905081810360008301526111df8184610fba565b905092915050565b600060408201905081810360008301526112018185610fba565b90506112106020830184610efd565b9392505050565b600060808201905081810360008301526112318186610fba565b90506112406020830185610efd565b61124d6040830184611164565b6112596060830161107f565b949350505050565b6000604082019050818103600083015261127b8185610fba565b9050818103602083015261128f8184610fba565b90509392505050565b600060408201905081810360008301526112b28185610fba565b90506112c16020830184611164565b9392505050565b600060208201905081810360008301526112e181610ff3565b9050919050565b6000602082019050818103600083015261130181611016565b9050919050565b6000602082019050818103600083015261132181611039565b9050919050565b600060208201905081810360008301526113418161105c565b9050919050565b60006020820190508181036000830152611361816110c8565b9050919050565b600060208201905061137d6000830184611164565b92915050565b60006040820190506113986000830185611164565b81810360208301526113aa8184610fba565b90509392505050565b60006113bd6113ce565b90506113c98282611580565b919050565b6000604051905090565b600067ffffffffffffffff8211156113f3576113f261166f565b5b6113fc8261169e565b9050602081019050919050565b6000819050602082019050919050565b600081519050919050565b600081519050919050565b6000602082019050919050565b600082825260208201905092915050565b600081905092915050565b600082825260208201905092915050565b600082825260208201905092915050565b600061148582611502565b915061149083611502565b9250827fffffffffffffffffffffffffffffffffffffffffffffffffffffffffffffffff038211156114c5576114c46115e2565b5b828201905092915050565b60006114db826114e2565b9050919050565b600073ffffffffffffffffffffffffffffffffffffffff82169050919050565b6000819050919050565b82818337600083830152505050565b60005b8381101561153957808201518184015260208101905061151e565b83811115611548576000848401525b50505050565b6000600282049050600182168061156657607f821691505b6020821081141561157a57611579611640565b5b50919050565b6115898261169e565b810181811067ffffffffffffffff821117156115a8576115a761166f565b5b80604052505050565b60006115bc82611502565b91506115c783611502565b9250826115d7576115d6611611565b5b828206905092915050565b7f4e487b7100000000000000000000000000000000000000000000000000000000600052601160045260246000fd5b7f4e487b7100000000000000000000000000000000000000000000000000000000600052601260045260246000fd5b7f4e487b7100000000000000000000000000000000000000000000000000000000600052602260045260246000fd5b7f4e487b7100000000000000000000000000000000000000000000000000000000600052604160045260246000fd5b6000601f19601f8301169050919050565b7f4f776e61626c653a206e6577206f776e657220697320746865207a65726f206160008201527f6464726573730000000000000000000000000000000000000000000000000000602082015250565b7f547279696e6720746f207769746864726177206d6f7265206d6f6e657920746860008201527f616e2074686520636f6e7472616374206861732e000000000000000000000000602082015250565b7f4661696c656420746f207769746864726177206d6f6e65792066726f6d20636f60008201527f6e74726163742e00000000000000000000000000000000000000000000000000602082015250565b7f4f776e61626c653a2063616c6c6572206973206e6f7420746865206f776e6572600082015250565b50565b7f576169742031356d000000000000000000000000000000000000000000000000600082015250565b6117fa816114d0565b811461180557600080fd5b5056fea264697066735822122098029d3f0c53ede8c107875a9a015d4fcdfa244383a962f0b3d34166f0c9592664736f6c63430008040033",
  "linkReferences": {},
  "deployedLinkReferences": {}
}