{
  "_format": "hh-sol-artifact-1",
  "contractName": "WavePortal",
  "sourceName": "contracts/WavePortal.sol",
  "abi": [
    {
      "inputs": [],
      "stateMutability": "payable",
      "type": "constructor"
    },
    {
      "anonymous": false,
      "inputs": [
        {
          "indexed": true,
          "internalType": "address",
          "name": "from",
          "type": "address"
        },
        {
          "indexed": false,
          "internalType": "uint256",
          "name": "timestamp",
          "type": "uint256"
        },
        {
          "indexed": false,
          "internalType": "string",
          "name": "message",
          "type": "string"
        }
      ],
      "name": "NewWave",
      "type": "event"
    },
    {
      "anonymous": false,
      "inputs": [
        {
          "indexed": true,
          "internalType": "address",
          "name": "previousOwner",
          "type": "address"
        },
        {
          "indexed": true,
          "internalType": "address",
          "name": "newOwner",
          "type": "address"
        }
      ],
      "name": "OwnershipTransferred",
      "type": "event"
    },
    {
      "anonymous": false,
      "inputs": [
        {
          "indexed": false,
          "internalType": "string",
          "name": "_username",
          "type": "string"
        },
        {
          "indexed": false,
          "internalType": "address",
          "name": "_user",
          "type": "address"
        },
        {
          "indexed": false,
          "internalType": "uint256",
          "name": "_time",
          "type": "uint256"
        },
        {
          "indexed": false,
          "internalType": "bytes32",
          "name": "_note",
          "type": "bytes32"
        }
      ],
      "name": "PrizeAwarded",
      "type": "event"
    },
    {
      "inputs": [],
      "name": "getAllWaves",
      "outputs": [
        {
          "components": [
            {
              "internalType": "string",
              "name": "username",
              "type": "string"
            },
            {
              "internalType": "address",
              "name": "waver",
              "type": "address"
            },
            {
              "internalType": "string",
              "name": "message",
              "type": "string"
            },
            {
              "internalType": "uint256",
              "name": "timestamp",
              "type": "uint256"
            }
          ],
          "internalType": "struct WavePortal.Wave[]",
          "name": "",
          "type": "tuple[]"
        }
      ],
      "stateMutability": "view",
      "type": "function"
    },
    {
      "inputs": [],
      "name": "getNumberOfWinners",
      "outputs": [
        {
          "internalType": "uint256",
          "name": "",
          "type": "uint256"
        }
      ],
      "stateMutability": "view",
      "type": "function"
    },
    {
      "inputs": [],
      "name": "getTotalWaves",
      "outputs": [
        {
          "internalType": "uint256",
          "name": "",
          "type": "uint256"
        }
      ],
      "stateMutability": "view",
      "type": "function"
    },
    {
      "inputs": [
        {
          "internalType": "address",
          "name": "",
          "type": "address"
        }
      ],
      "name": "lastWavedAt",
      "outputs": [
        {
          "internalType": "uint256",
          "name": "",
          "type": "uint256"
        }
      ],
      "stateMutability": "view",
      "type": "function"
    },
    {
      "inputs": [],
      "name": "owner",
      "outputs": [
        {
          "internalType": "address",
          "name": "",
          "type": "address"
        }
      ],
      "stateMutability": "view",
      "type": "function"
    },
    {
      "inputs": [],
      "name": "renounceOwnership",
      "outputs": [],
      "stateMutability": "nonpayable",
      "type": "function"
    },
    {
      "inputs": [
        {
          "internalType": "address",
          "name": "newOwner",
          "type": "address"
        }
      ],
      "name": "transferOwnership",
      "outputs": [],
      "stateMutability": "nonpayable",
      "type": "function"
    },
    {
      "inputs": [
        {
          "internalType": "string",
          "name": "_username",
          "type": "string"
        },
        {
          "internalType": "string",
          "name": "_message",
          "type": "string"
        }
      ],
      "name": "wave",
      "outputs": [],
      "stateMutability": "nonpayable",
      "type": "function"
    }
  ],
  "bytecode": "0x60806040526200002462000018620000ae60201b60201c565b620000b660201b60201c565b6200006f6040518060400160405280601981526020017f57652068617665206265656e20636f6e737472756374656421000000000000008152506200017a60201b620009911760201c565b606444426200007f9190620002d4565b6200008b919062000371565b600381905550620000a860026200021d60201b62000a2a1760201c565b62000418565b600033905090565b60008060009054906101000a900473ffffffffffffffffffffffffffffffffffffffff169050816000806101000a81548173ffffffffffffffffffffffffffffffffffffffff021916908373ffffffffffffffffffffffffffffffffffffffff1602179055508173ffffffffffffffffffffffffffffffffffffffff168173ffffffffffffffffffffffffffffffffffffffff167f8be0079c531659141344cd1fd0a4f28419497f9722a3daafe3b4186f6b6457e060405160405180910390a35050565b6200021a8160405160240162000191919062000294565b6040516020818303038152906040527f41304fac000000000000000000000000000000000000000000000000000000007bffffffffffffffffffffffffffffffffffffffffffffffffffffffff19166020820180517bffffffffffffffffffffffffffffffffffffffffffffffffffffffff83818316178352505050506200022a60201b60201c565b50565b6000816000018190555050565b60008151905060006a636f6e736f6c652e6c6f679050602083016000808483855afa5050505050565b60006200026082620002b8565b6200026c8185620002c3565b93506200027e8185602086016200033b565b620002898162000407565b840191505092915050565b60006020820190508181036000830152620002b0818462000253565b905092915050565b600081519050919050565b600082825260208201905092915050565b6000620002e18262000331565b9150620002ee8362000331565b9250827fffffffffffffffffffffffffffffffffffffffffffffffffffffffffffffffff03821115620003265762000325620003a9565b5b828201905092915050565b6000819050919050565b60005b838110156200035b5780820151818401526020810190506200033e565b838111156200036b576000848401525b50505050565b60006200037e8262000331565b91506200038b8362000331565b9250826200039e576200039d620003d8565b5b828206905092915050565b7f4e487b7100000000000000000000000000000000000000000000000000000000600052601160045260246000fd5b7f4e487b7100000000000000000000000000000000000000000000000000000000600052601260045260246000fd5b6000601f19601f8301169050919050565b61186380620004286000396000f3fe608060405234801561001057600080fd5b50600436106100885760003560e01c80639a2cdc081161005b5780639a2cdc08146100ef578063a42a46631461010d578063bd43a9081461013d578063f2fde38b1461015b57610088565b8063518729591461008d578063715018a6146100a95780638da5cb5b146100b35780638e33cffc146100d1575b600080fd5b6100a760048036038101906100a29190610e6d565b610177565b005b6100b16105cb565b005b6100bb610653565b6040516100c89190611187565b60405180910390f35b6100d961067c565b6040516100e69190611367565b60405180910390f35b6100f761068d565b6040516101049190611367565b60405180910390f35b61012760048036038101906101229190610e44565b61069e565b6040516101349190611367565b60405180910390f35b6101456106b6565b60405161015291906111a2565b60405180910390f35b61017560048036038101906101709190610e44565b610899565b005b42601e600460003373ffffffffffffffffffffffffffffffffffffffff1673ffffffffffffffffffffffffffffffffffffffff168152602001908152602001600020546101c49190611479565b10610204576040517f08c379a00000000000000000000000000000000000000000000000000000000081526004016101fb90611327565b60405180910390fd5b42600460003373ffffffffffffffffffffffffffffffffffffffff1673ffffffffffffffffffffffffffffffffffffffff168152602001908152602001600020819055506102526001610a37565b600560405180608001604052808481526020013373ffffffffffffffffffffffffffffffffffffffff16815260200183815260200142815250908060018154018082558091505060019003906000526020600020906004020160009091909190915060008201518160000190805190602001906102d0929190610d24565b5060208201518160010160006101000a81548173ffffffffffffffffffffffffffffffffffffffff021916908373ffffffffffffffffffffffffffffffffffffffff1602179055506040820151816002019080519060200190610334929190610d24565b50606082015181600301555050606460035442446103529190611479565b61035c9190611479565b61036691906115b0565b6003819055506103ad6040518060400160405280601681526020017f52616e646f6d20232067656e6572617465643a20256400000000000000000000815250600354610a4d565b6103ec6040518060400160405280600f81526020017f5375626d6974746564206279202573000000000000000000000000000000000081525083610ae9565b603260035411610577576104356040518060400160405280600781526020017f257320776f6e210000000000000000000000000000000000000000000000000081525033610b85565b6000655af3107a4000905061044a6002610a37565b7f941012aa926875905a4d282b62b9fc55cc24cb15706ffb66681603eb2d9fff8a83334260405161047d93929190611216565b60405180910390a1478111156104c8576040517f08c379a00000000000000000000000000000000000000000000000000000000081526004016104bf906112e7565b60405180910390fd5b60003373ffffffffffffffffffffffffffffffffffffffff16826040516104ee90611172565b60006040518083038185875af1925050503d806000811461052b576040519150601f19603f3d011682016040523d82523d6000602084013e610530565b606091505b5050905080610574576040517f08c379a000000000000000000000000000000000000000000000000000000000815260040161056b90611307565b60405180910390fd5b50505b3373ffffffffffffffffffffffffffffffffffffffff167f5f7e16dc676677766a70e9c5628aa6c54ddb8b6e5188e2ae1e1f17f1ffbea71642836040516105bf929190611382565b60405180910390a25050565b6105d3610c21565b73ffffffffffffffffffffffffffffffffffffffff166105f1610653565b73ffffffffffffffffffffffffffffffffffffffff1614610647576040517f08c379a000000000000000000000000000000000000000000000000000000000815260040161063e90611347565b60405180910390fd5b6106516000610c29565b565b60008060009054906101000a900473ffffffffffffffffffffffffffffffffffffffff16905090565b60006106886002610ced565b905090565b60006106996001610ced565b905090565b60046020528060005260406000206000915090505481565b60606005805480602002602001604051908101604052809291908181526020016000905b82821015610890578382906000526020600020906004020160405180608001604052908160008201805461070d9061154d565b80601f01602080910402602001604051908101604052809291908181526020018280546107399061154d565b80156107865780601f1061075b57610100808354040283529160200191610786565b820191906000526020600020905b81548152906001019060200180831161076957829003601f168201915b505050505081526020016001820160009054906101000a900473ffffffffffffffffffffffffffffffffffffffff1673ffffffffffffffffffffffffffffffffffffffff1673ffffffffffffffffffffffffffffffffffffffff1681526020016002820180546107f59061154d565b80601f01602080910402602001604051908101604052809291908181526020018280546108219061154d565b801561086e5780601f106108435761010080835404028352916020019161086e565b820191906000526020600020905b81548152906001019060200180831161085157829003601f168201915b50505050508152602001600382015481525050815260200190600101906106da565b50505050905090565b6108a1610c21565b73ffffffffffffffffffffffffffffffffffffffff166108bf610653565b73ffffffffffffffffffffffffffffffffffffffff1614610915576040517f08c379a000000000000000000000000000000000000000000000000000000000815260040161090c90611347565b60405180910390fd5b600073ffffffffffffffffffffffffffffffffffffffff168173ffffffffffffffffffffffffffffffffffffffff161415610985576040517f08c379a000000000000000000000000000000000000000000000000000000000815260040161097c906112c7565b60405180910390fd5b61098e81610c29565b50565b610a27816040516024016109a591906111c4565b6040516020818303038152906040527f41304fac000000000000000000000000000000000000000000000000000000007bffffffffffffffffffffffffffffffffffffffffffffffffffffffff19166020820180517bffffffffffffffffffffffffffffffffffffffffffffffffffffffff8381831617835250505050610cfb565b50565b6000816000018190555050565b6001816000016000828254019250508190555050565b610ae58282604051602401610a63929190611297565b6040516020818303038152906040527f9710a9d0000000000000000000000000000000000000000000000000000000007bffffffffffffffffffffffffffffffffffffffffffffffffffffffff19166020820180517bffffffffffffffffffffffffffffffffffffffffffffffffffffffff8381831617835250505050610cfb565b5050565b610b818282604051602401610aff929190611260565b6040516020818303038152906040527f4b5c4277000000000000000000000000000000000000000000000000000000007bffffffffffffffffffffffffffffffffffffffffffffffffffffffff19166020820180517bffffffffffffffffffffffffffffffffffffffffffffffffffffffff8381831617835250505050610cfb565b5050565b610c1d8282604051602401610b9b9291906111e6565b6040516020818303038152906040527f319af333000000000000000000000000000000000000000000000000000000007bffffffffffffffffffffffffffffffffffffffffffffffffffffffff19166020820180517bffffffffffffffffffffffffffffffffffffffffffffffffffffffff8381831617835250505050610cfb565b5050565b600033905090565b60008060009054906101000a900473ffffffffffffffffffffffffffffffffffffffff169050816000806101000a81548173ffffffffffffffffffffffffffffffffffffffff021916908373ffffffffffffffffffffffffffffffffffffffff1602179055508173ffffffffffffffffffffffffffffffffffffffff168173ffffffffffffffffffffffffffffffffffffffff167f8be0079c531659141344cd1fd0a4f28419497f9722a3daafe3b4186f6b6457e060405160405180910390a35050565b600081600001549050919050565b60008151905060006a636f6e736f6c652e6c6f679050602083016000808483855afa5050505050565b828054610d309061154d565b90600052602060002090601f016020900481019282610d525760008555610d99565b82601f10610d6b57805160ff1916838001178555610d99565b82800160010185558215610d99579182015b82811115610d98578251825591602001919060010190610d7d565b5b509050610da69190610daa565b5090565b5b80821115610dc3576000816000905550600101610dab565b5090565b6000610dda610dd5846113d7565b6113b2565b905082815260208101848484011115610df257600080fd5b610dfd84828561150b565b509392505050565b600081359050610e1481611816565b92915050565b600082601f830112610e2b57600080fd5b8135610e3b848260208601610dc7565b91505092915050565b600060208284031215610e5657600080fd5b6000610e6484828501610e05565b91505092915050565b60008060408385031215610e8057600080fd5b600083013567ffffffffffffffff811115610e9a57600080fd5b610ea685828601610e1a565b925050602083013567ffffffffffffffff811115610ec357600080fd5b610ecf85828601610e1a565b9150509250929050565b6000610ee583836110ea565b905092915050565b610ef6816114cf565b82525050565b610f05816114cf565b82525050565b6000610f1682611418565b610f20818561143b565b935083602082028501610f3285611408565b8060005b85811015610f6e5784840389528151610f4f8582610ed9565b9450610f5a8361142e565b925060208a01995050600181019050610f36565b50829750879550505050505092915050565b6000610f8b82611423565b610f958185611457565b9350610fa581856020860161151a565b610fae8161169d565b840191505092915050565b6000610fc482611423565b610fce8185611468565b9350610fde81856020860161151a565b610fe78161169d565b840191505092915050565b6000610fff602683611468565b915061100a826116ae565b604082019050919050565b6000611022603483611468565b915061102d826116fd565b604082019050919050565b6000611045602783611468565b91506110508261174c565b604082019050919050565b6000611068602983611468565b91506110738261179b565b604082019050919050565b600061108b602083611468565b9150611096826117ea565b602082019050919050565b7f48757a7a61682100000000000000000000000000000000000000000000000000815250565b60006110d460008361144c565b91506110df82611813565b600082019050919050565b600060808301600083015184820360008601526111078282610f80565b915050602083015161111c6020860182610eed565b50604083015184820360408601526111348282610f80565b91505060608301516111496060860182611154565b508091505092915050565b61115d81611501565b82525050565b61116c81611501565b82525050565b600061117d826110c7565b9150819050919050565b600060208201905061119c6000830184610efc565b92915050565b600060208201905081810360008301526111bc8184610f0b565b905092915050565b600060208201905081810360008301526111de8184610fb9565b905092915050565b600060408201905081810360008301526112008185610fb9565b905061120f6020830184610efc565b9392505050565b600060808201905081810360008301526112308186610fb9565b905061123f6020830185610efc565b61124c6040830184611163565b611258606083016110a1565b949350505050565b6000604082019050818103600083015261127a8185610fb9565b9050818103602083015261128e8184610fb9565b90509392505050565b600060408201905081810360008301526112b18185610fb9565b90506112c06020830184611163565b9392505050565b600060208201905081810360008301526112e081610ff2565b9050919050565b6000602082019050818103600083015261130081611015565b9050919050565b6000602082019050818103600083015261132081611038565b9050919050565b600060208201905081810360008301526113408161105b565b9050919050565b600060208201905081810360008301526113608161107e565b9050919050565b600060208201905061137c6000830184611163565b92915050565b60006040820190506113976000830185611163565b81810360208301526113a98184610fb9565b90509392505050565b60006113bc6113cd565b90506113c8828261157f565b919050565b6000604051905090565b600067ffffffffffffffff8211156113f2576113f161166e565b5b6113fb8261169d565b9050602081019050919050565b6000819050602082019050919050565b600081519050919050565b600081519050919050565b6000602082019050919050565b600082825260208201905092915050565b600081905092915050565b600082825260208201905092915050565b600082825260208201905092915050565b600061148482611501565b915061148f83611501565b9250827fffffffffffffffffffffffffffffffffffffffffffffffffffffffffffffffff038211156114c4576114c36115e1565b5b828201905092915050565b60006114da826114e1565b9050919050565b600073ffffffffffffffffffffffffffffffffffffffff82169050919050565b6000819050919050565b82818337600083830152505050565b60005b8381101561153857808201518184015260208101905061151d565b83811115611547576000848401525b50505050565b6000600282049050600182168061156557607f821691505b602082108114156115795761157861163f565b5b50919050565b6115888261169d565b810181811067ffffffffffffffff821117156115a7576115a661166e565b5b80604052505050565b60006115bb82611501565b91506115c683611501565b9250826115d6576115d5611610565b5b828206905092915050565b7f4e487b7100000000000000000000000000000000000000000000000000000000600052601160045260246000fd5b7f4e487b7100000000000000000000000000000000000000000000000000000000600052601260045260246000fd5b7f4e487b7100000000000000000000000000000000000000000000000000000000600052602260045260246000fd5b7f4e487b7100000000000000000000000000000000000000000000000000000000600052604160045260246000fd5b6000601f19601f8301169050919050565b7f4f776e61626c653a206e6577206f776e657220697320746865207a65726f206160008201527f6464726573730000000000000000000000000000000000000000000000000000602082015250565b7f547279696e6720746f207769746864726177206d6f7265206d6f6e657920746860008201527f616e2074686520636f6e7472616374206861732e000000000000000000000000602082015250565b7f4661696c656420746f207769746864726177206d6f6e65792066726f6d20636f60008201527f6e74726163742e00000000000000000000000000000000000000000000000000602082015250565b7f4d7573742077616974203330207365636f6e6473206265666f7265207761766960008201527f6e6720616761696e2e0000000000000000000000000000000000000000000000602082015250565b7f4f776e61626c653a2063616c6c6572206973206e6f7420746865206f776e6572600082015250565b50565b61181f816114cf565b811461182a57600080fd5b5056fea2646970667358221220ccd9adaee3b6bf3f04d039bdd63d41958937c2f73107286c85d2d111b6ab84fc64736f6c63430008040033",
  "linkReferences": {},
  "deployedLinkReferences": {}
}